S01E0000547261666669635365637572697479466C61736865722E737265632A
S11300000C942A000C9447000C9447000C9447006D
S11300100C94BC010C94E3010C9447000C94410132
S11300200C9468010C948F010C94F0000C9417014B
S11300300C9447000C9447000C9447000C94470020
S11300400C9447000C9447000C9447000C94470010
S11300500C94470011241FBECFE5D8E0DEBFCDBF0E
S113006010E0A0E6B0E0E0E4F5E002C005900D92F7
S1130070AA37B107D9F720E0AAE7B0E001C01D9282
S1130080A73AB207E1F70E940F020C949E020C9467
S1130090000080919100909192009C012F5F3F4F4E
S11300A03093920020939100883E934020F0109268
S11300B09200109291008091950091E0980F909396
S11300C09500893130F0109295008FE990E00E94FC
S11300D06D028091740080FF3FC0809193009091E5
S11300E094009C012F5F3F4F309394002093930022
S11300F0E0917A00F0E0EE0FFF1FEE0FFF1FE05AD1
S1130100FF4F2081318182179307C0F4E5E7F0E0C7
S1130110A281B3818C918E7F8C93A281B3818C91C7
S11301208D7F8C93A281B3818C918B7F8C93028081
S1130130F381E02D8081877F80830EC0109294002C
S113014010929300809174008E7F8093740080914C
S113015074008260809374008091740081FF3FC0BA
S113016080919300909194009C012F5F3F4F3093B6
S1130170940020939300E0917A00F0E0EE0FFF1FCB
S1130180EE0FFF1FE05AFF4F22813381821793073E
S1130190C0F4E5E7F0E0A281B3818C9181608C9397
S11301A0A281B3818C9182608C93A281B3818C9162
S11301B084608C930280F381E02D80818860808349
S11301C008951092940010929300809174008D7F92
S11301D0809374008091740081608093740008950A
S11301E01F920F920FB60F9211242F933F934F93A8
S11301F05F936F937F938F939F93AF93BF93EF938B
S1130200FF93E0917D00F0917E000995FF91EF91BD
S1130210BF91AF919F918F917F916F915F914F911A
S11302203F912F910F900FBE0F901F9018951F9222
S11302300F920FB60F9211242F933F934F935F9316
S11302406F937F938F939F93AF93BF93EF93FF939A
S1130250E0917B00F0917C0009958091960082BF2B
S1130260FF91EF91BF91AF919F918F917F916F918A
S11302705F914F913F912F910F900FBE0F901F9060
S113028018951F920F920FB60F9211242F933F933C
S11302904F935F936F937F938F939F93AF93BF938A
S11302A0EF93FF93E0918700F09188000995FF9107
S11302B0EF91BF91AF919F918F917F916F915F91DA
S11302C04F913F912F910F900FBE0F901F90189553
S11302D01F920F920FB60F9211242F933F934F93B7
S11302E05F936F937F938F939F93AF93BF93EF939A
S11302F0FF93E0918500F09186000995FF91EF91BD
S1130300BF91AF919F918F917F916F915F914F9129
S11303103F912F910F900FBE0F901F9018951F9231
S11303200F920FB60F9211242F933F934F935F9325
S11303306F937F938F939F93AF93BF93EF93FF93A9
S1130340E0918300F0918400099580919A00909146
S11303509B009DBD8CBDFF91EF91BF91AF919F918B
S11303608F917F916F915F914F913F912F910F905A
S11303700FBE0F901F9018951F920F920FB60F92F9
S113038011242F933F934F935F936F937F938F9396
S11303909F93AF93BF93EF93FF93E0918B00F09102
S11303A08C000995FF91EF91BF91AF919F918F912F
S11303B07F916F915F914F913F912F910F900FBE5D
S11303C00F901F9018951F920F920FB60F92112441
S11303D02F933F934F935F936F937F938F939F9349
S11303E0AF93BF93EF93FF93E0918900F0918A005C
S11303F0099580919D0090919E0084BDFF91EF919D
S1130400BF91AF919F918F917F916F915F914F9128
S11304103F912F910F900FBE0F901F90189500E001
S113042028E048E065E370E08FE990E00E94510223
S1130430F89489E490E090937E0080937D0083B7E4
S11304408B6083BF8CE78CBF89B7826089BF789447
S1130450E5E7F0E0A081B1818C9181608C93A0816B
S1130460B1818C9182608C93A081B1818C918460E4
S11304708C930190F081E02D80818860808368E016
S11304808FE990E00E9494028823C9F380917A0056
S113049091E0980F90937A00873088F310927A0055
S11304A0EECF0F93FC0161157105A1F0DB018E9174
S11304B0942F909589238C93DB018C91282B2C937A
S11304C071836083458313821282148216820783A8
S11304D080E001C081E00F910895FC01A081B18109
S11304E012978C91809595818923828393818917B2
S11304F041F0909598232481922B948394E69093D1
S1130500790090917900915090937900911109C0EC
S11305109781982331F025E0209379002681922B4E
S11305209683838384810895FC01F8948481962FB3
S1130530909598239483789486230895F894FFCF14
S11305403200D0076400D00796009600FA00FA0043
S10D0550F401F401013A003B001924
S9030000FC
