:1000000009C021C020C01FC01EC01DC01CC01BC015
:100010001AC019C011241FBECFE9CDBF10E0A0E661
:10002000B0E0E8EAF0E002C005900D92A036B1071A
:10003000D9F720E0A0E6B0E001C01D92A137B207D9
:10004000E1F703D02FC0DCCF089500E020E041E0CD
:1000500068E370E089E690E009D0F89484E290E0EB
:1000600090936300809362007894FFCF0F93FC011C
:1000700061157105A1F0DB018E91942F9095892374
:100080008C93DB018C91282B2C93718360834583A7
:100090001382128214821682078380E001C081E0FD
:0800A0000F910895F894FFCFC1
:00000001FF
