S01E0000547261666669635365637572697479466C61736865722E737265632A
S11300000EC028C027C026C025C0EFC023C022C010
S113001021C020C09CC0C2C01DC01CC01BC0112474
S11300201FBECFE5D2E0DEBFCDBF10E0A0E6B0E05A
S1130030EEE5F4E002C005900D92AC37B107D9F7B4
S113004020E0ACE7B0E001C01D92AE39B207E1F7A1
S1130050F6D003C2D5CF80918B0090918C009C0187
S11300602F5F3F4F30938C0020938B00883E93404A
S113007020F010928C0010928B0080918F0091E000
S1130080980F90938F00893128F010928F0086E9A1
S113009090E0B2D18091780080FF27C080918D00DC
S11300A090918E009C012F5F3F4F30938E002093E0
S11300B08D00E0917D00F0E0EE0FFF1FEE0FFF1FBB
S11300C0E05AFF4F208131818217930770F010921C
S11300D08E0010928D00809178008E7F809378003E
S11300E0809178008260809378008091780081FF0D
S11300F027C080918D0090918E009C012F5F3F4F0F
S113010030938E0020938D00E0917D00F0E0EE0F9F
S1130110FF1FEE0FFF1FE05AFF4F2281338182172A
S1130120930770F010928E0010928D0080917800E9
S11301308D7F80937800809178008160809378002F
S113014080E029D1A82FCB0161E0BBD008951F9294
S11301500F920FB60F9211242F933F934F935F93F7
S11301606F937F938F939F93AF93BF93EF93FF937B
S1130170E0918000F09181000995FF91EF91BF918A
S1130180AF919F918F917F916F915F914F913F912B
S11301902F910F900FBE0F901F9018951F920F92E2
S11301A00FB60F9211242F933F934F935F936F9346
S11301B07F938F939F93AF93BF93EF93FF93E091BC
S11301C08200F09183000995FF91EF91BF91AF9167
S11301D09F918F917F916F915F914F913F912F915B
S11301E00F900FBE0F901F9018951F920F920FB68D
S11301F00F9211242F933F934F935F936F937F93A9
S11302008F939F93AF93BF93EF93FF93E0917E00FF
S1130210F0917F0009958091900082BFFF91EF914A
S1130220BF91AF919F918F917F916F915F914F910A
S11302303F912F910F900FBE0F901F90189500E0E3
S113024020E140E168E370E086E990E0B9D0F894F9
S11302508BE290E090938100809380007894C0E0DA
S11302608C2F75D0CF5FC830D9F760E186E990E074
S1130270EAD0882351F080917D0091E0980F90930B
S11302807D00873010F010927D0080918B0090915A
S11302908C008B3F910548F310928C0010928B00D8
S11302A090917C0081E0890F80937C00983018F451
S11302B088704DD0DACF10927C0060E080E060D08E
S11302C0D4CFDC01E0917900F0917A0080818E7FB7
S11302D08083611137C039C0E0917900F0917A00D0
S11302E020812B7F208311962C911197222341F09A
S11302F0E0917900F0917A0020812860208307C082
S1130300E0917900F0917A002081277F2083E091A9
S11303107900F0917A0020812B7F20839150E1F6BF
S1130320E0917900F0917A00908192609083E0915D
S11303307900F0917A0090819D7F90838F5F68139C
S113034002C003C080E098E0C7CF80E00895382F52
S1130350369536953695E32FF0E0E657FF4F282F74
S1130360277081E090E002C0880F991F2A95E2F778
S11303709081892B808381E0323008F480E00895F5
S1130380E82FF0E0E657FF4F608391E0823008F4F5
S113039090E0892F0895823038F4282F30E041E02E
S11303A050E0421B530B22F460E070E080E00895BB
S11303B026573F4F622F732F91E0981B892F089582
S11303C00F93FC0161157105A1F0DB018E91942F4F
S11303D0909589238C93DB018C91282B2C9371832A
S11303E0608345831382128214821682078380E01D
S11303F001C081E00F910895FC01A081B1811297A1
S11304008C9180959581892382839381891741F00A
S1130410909598232481922B948394E690937B0067
S113042090917B00915090937B00911109C097812A
S1130430982331F025E020937B002681922B96832C
S1130440838384810895FC01F8948481962F909588
S111045098239483789486230895F894FFCF1C
S113045E3200D0076400D0079600D00796009600AD
S10F046EFA00FA00F401F401013800194E
S9030000FC
