S01E0000547261666669635365637572697479466C61736865722E737265632A
S113000009C021C020C01FC01EC01DC01CC01BC011
S11300101AC019C011241FBECFE9CDBF10E0A0E65D
S1130020B0E0E2EAF2E002C005900D92AE37B1070B
S1130030D9F720E0AEE7B0E001C01D92A539B207C0
S1130040E1F7A8D02CC1DCCF809185009091860087
S11300509C012F5F3F4F3093860020938500883E9C
S1130060934020F0109286001092850080918900C0
S113007091E0980F90938900893128F010928900BB
S11300808DE890E0DBD08091780080FF3FC08091C4
S11300908700909188009C012F5F3F4F3093880028
S11300A020938700E0917E00F0E0EE0FFF1FEE0F3B
S11300B0FF1FE05AFF4F2081318182179307C0F45C
S11300C0E9E7F0E0A281B3818C918E7F8C93A281C9
S11300D0B3818C918D7F8C93A281B3818C918B7F22
S11300E08C930280F381E02D8081877F80830EC012
S11300F01092880010928700809178008E7F809300
S113010078008091780082608093780080917800F4
S113011081FF3FC080918700909188009C012F5FF0
S11301203F4F3093880020938700E0917E00F0E0F9
S1130130EE0FFF1FEE0FFF1FE05AFF4F22813381A6
S113014082179307C0F4E9E7F0E0A281B3818C91B0
S113015081608C93A281B3818C9182608C93A28103
S1130160B3818C9184608C930280F381E02D808133
S1130170886080830895109288001092870080918F
S113018078008D7F809378008091780081608093DF
S11301907800089500E028E048E068E370E08DE826
S11301A090E030D0F89484E290E0909382008093C1
S11301B081007894E9E7F0E0A081B1818C918160BD
S11301C08C93A081B1818C9182608C93A081B18148
S11301D08C9184608C930190F081E02D8081886003
S11301E0808368E08DE890E050D08823D1F380913B
S11301F07E0091E0980F90937E00873090F31092E8
S11302007E00EFCF0F93FC0161157105A1F0DB01B6
S11302108E91942F909589238C93DB018C91282BBC
S11302202C93718360834583138212821482168215
S1130230078380E001C081E00F910895FC01A08153
S1130240B18112978C9180959581892382839381C2
S1130250891741F0909598232481922B948394E6F6
S113026090937D0090917D00915090937D00911129
S113027009C09781982331F025E020937D002681E1
S1130280922B9683838384810895FC01F89484815E
S1130290962F909598239483789486230895F894C0
S10502A0FFCF8A
S11302A23200D0076400D0079600D007960096006B
S11102B2FA00FA00F401F401013700380019D3
S9030000FC
